S01700006275696C642F697269732F6D61696E2E7372656343
S11300000C9469000C9488000C9488000C9488006B
S11300100C9488000C9488000C9488000C9488003C
S11300200C9488000C9488000C9488000C9488002C
S11300300C9488000C94BF010C9488000C94AB01C0
S11300400C9488000C9488000C9488000C9488000C
S11300500C9488000C9488000C9488000C948800FC
S11300600C9488000C9488000C9488000C948800EC
S11300700C9488000C9488000C9488000C948800DC
S11300800C9488000C9488000C9488000C948800CC
S11300900C9488000C9488000C9488000C948800BC
S11300A00C9488000C9488000C9488000C948800AC
S11300B00C9488000C9488000C9488000C9488009C
S11300C00C9488000C9488000C94880000020E069E
S11300D00C0411241FBECFEFD1E2DEBFCDBF12E06E
S11300E0A0E0B2E0E4EDF8E000E00BBF02C007904E
S11300F00D92A030B107D9F712E0A0E0B2E001C040
S11301001D92A333B107E1F70E9432030C946904F2
S11301100C9400008FB7F894992708958FBF089521
S11301207FB7F8946091B2002091040230910502E7
S11301304091060250910702B99B11C08091B3000F
S11301409091B200280F311D411D511D2F5F3F4F6B
S11301504F4F5F4F290F311D411D511D04C0260F04
S1130160311D411D511D872F99278FBFCA01B90128
S11301700895282F9FB7F894E82FFF27E85FFD4FD5
S113018080818F3F81F4E0913202E21771F40BC059
S113019020932B0204C0FF27E85FFD4F20832093A8
S11301A0320220E007C025E005C080912B028F3F7A
S11301B091F7EECF892F99278FBF822F9927089522
S11301C0DF92EF92FF920F931F938FB7F894282F2B
S11301D03327D22E9091B3008091B20047B3981781
S11301E011F041FF02C02FBF71C080910B02882320
S11301F0E1F10E949000E0900002F0900102009171
S113020002021091030220912E0230912F0240919C
S11302103002509131026E197F09800B910B6217E5
S113022073078407950720F010920B0271E01EC03B
S11302302E0D3F1D401F511F809104029091050215
S1130240A0910602B0910702281B390B4A0B5B0BE5
S1130250273E31054105510540F4822F223010F02C
S113026070E005C070E082E002C070E086EE682FA6
S113027061508091B60083FDFCCF8091B200681775
S113028009F46F5F20910402309105024091060247
S113029050910702DA01C9010196A11DB11D860F13
S11302A0911DA11DB11D82179307A407B50710F472
S11302B0622F60958091B60083FDFCCF6093B300FC
S11302C0DFBE772319F080E00E94B9001F910F91DF
S11302D0FF90EF90DF900895AFB7F894BB27E1E06B
S11302E0E0930B0260930002709301028093020278
S11302F09093030220932E0230932F0240933002F6
S113030050933102AFBF0E94E0000895DF92EF9254
S1130310FF920F931F93D82E7A018B010E949000B5
S113032029E0D29EF0011124E45FFD4F60837183C4
S113033082839383E482F5820683178380858E7F8C
S11303408260808781E00E94B9001F910F91FF9025
S1130350EF90DF9008951F920F920FB60F92112421
S11303608F938091B0008093B0008091B60081FD9E
S1130370FCCF8F910F900FBE0F901F9018951F9276
S11303800F920FB60F9211242F933F934F935F93C5
S11303906F937F938F939F93AF93BF93EF93FF9349
S11303A08091B0008093B0008091B60081FDFCCFB5
S11303B08091B30099270196AA27BB2720910402B4
S11303C0309105024091060250910702280F391F0F
S11303D04A1F5B1F209304023093050240930602D8
S11303E05093070278940E94E000FF91EF91BF912F
S11303F0AF919F918F917F916F915F914F913F91B9
S11304002F910F900FBE0F901F901895AF92BF922F
S1130410CF92DF92EF92FF920F931F93CF93DF93CC
S11304205B016C01C0E0D0E0ECE0F2E07C2F608581
S113043061FF3CC02081318142815381E480F58099
S113044006811781D601C501821B930BA40BB50B42
S11304508E159F05A007B10748F160FF03C06D7FAB
S1130460608708C02E0D3F1D401F511F208331831C
S113047042835383713059F0713018F07230E1F4D3
S11304800CC08FB7F894992722B134E00BC08FB712
S1130490F894992722B132E005C08FB7F8949927D0
S11304A022B131E0232722B98FBF06C021963996A5
S11304B0C330D10509F0BACF81E00E94B900DF91C1
S11304C0CF911F910F91FF90EF90DF90CF90BF904D
S11304D0AF900895AF92BF92CF92DF92EF92FF92C6
S11304E00F931F930E9490005B016C018FB7F894E7
S11304F0992710920B028FBF8FEFE82E8FEFF82E03
S11305008FEF082F8FE7182F60E0ECE0F2E0808592
S113051081FF1CC080819181A281B381A6019501D4
S1130520281B390B4A0B5B0BDA01C9012481358185
S113053046815781281B390B4A0B5B0B2E153F054F
S1130540400751071CF479018A0161E0399632E0D1
S1130550E732F307E1F66623D9F01E141F041006F0
S113056011062CF0C601B5010E94060211C0E092EA
S11305702702F09228020093290210932A0281E0B4
S113058080930A02A8019701C601B5010E946C017B
S11305901F910F91FF90EF90DF90CF90BF90AF909D
S11305A00895EF92FF920F931F9380910A0288237C
S11305B061F520912702309128024091290250913F
S11305C02A02EFB7F894FF276091000270910102AC
S11305D08091020290910302E0902E02F0902F028B
S11305E000913002109131026E0D7F1D801F911F0A
S11305F0EFBF20932702309328024093290250939F
S11306002A0210920A020E946C010E9490000E9429
S113061006021F910F91FF90EF90089580912B0295
S11306208F3FE9F0282F3327F901E85FFD4F8081E0
S113063080932B028F3F11F4809332028FEF8083DB
S11306402F3F69F0222319F0213021F005C00E94C8
S1130650D10202C00E946A0281E090E0089580E025
S113066090E008951F931FB7F89442E050E06FEFB5
S113067070E088E092E00E9462048FEF80932B0286
S11306808093320281E08093810080E28093B600FF
S113069083E08093B10080918400909185004AE7C3
S11306A020918400309185002817390708F44150BF
S11306B0442311F0C901F4CF9091B2008091B200AB
S11306C08917E1F320918400309185009091B20064
S11306D08091B2008917E1F38091840090918500A4
S11306E0821B930B409625E0969587952A95E1F712
S11306F090932D0280932C021092B1008091B1004E
S113070080938100809181008093B6001092B200A2
S113071010928500109284008FEF87BB87B386BB4D
S11307208091B6008571E1F70A9A099A089A129A9B
S1130730119A109A18B88FEF87B90C98149881E021
S113074085BF0E940E038823E1F78091B600806282
S11307508093B6008091B60081FDFCCF82E0809347
S1130760B0008091B60080FDFCCF83E08093B1009F
S11307708091B60083FDFCCF86EE8093B300809118
S113078070008260809370000E94E0000E940E035B
S11307908823E1F7812F99278FBF78944AEF50E09F
S11307A060E070E080E00E94860144EF51E060E088
S11307B070E081E00E94860148EE53E060E070E062
S11307C082E00E9486018FB7F894482F552757C0BE
S11307D080917000992783709070892B19F4E5E05B
S11307E0F0E014C08091B6008A71E1F78091B30003
S11307F09091B200891B8C3038F08091B200853F13
S113080018F4E3E0F0E002C0E2E0F0E080916E0072
S1130810867009F580916F008E72E9F48091710001
S11308208E72C9F40CB407FC16C08091C100807E9E
S113083091F48091C900807E71F48091BC0082FDA6
S11308400AC080917A0087FF03C081E090E005C070
S113085085E090E002C080E090E023B78E1708F4B2
S1130860E82FFF27E453FF4FE491207F2160E22B20
S1130870E3BF78948895F89483B78E7F83BF809183
S11308802B028F3F09F4A4CF282F3327F901E85F07
S1130890FD4F808180932B028F3F11F480933202AD
S11308A08FEF80832F3F09F493CF4FBF222321F092
S11308B0213009F088CF03C00E94D10284CF0E9466
S11308C06A0281CFDC0101C06D9341505040E0F7D2
S10708D00895FFCFB5
S9030000FC
